{"abi":[{"inputs":[{"internalType":"address","name":"_golluxTokenAddress","type":"address"}],"stateMutability":"nonpayable","type":"constructor","name":"constructor"},{"anonymous":false,"inputs":[{"indexed":true,"internalType":"address","name":"previousOwner","type":"address"},{"indexed":true,"internalType":"address","name":"newOwner","type":"address"}],"name":"OwnershipTransferred","type":"event"},{"inputs":[{"internalType":"address","name":"_token","type":"address"}],"name":"addAllowedTokens","outputs":[],"stateMutability":"nonpayable","type":"function"},{"inputs":[{"internalType":"uint256","name":"","type":"uint256"}],"name":"allowedTokens","outputs":[{"internalType":"address","name":"","type":"address"}],"stateMutability":"view","type":"function"},{"inputs":[{"internalType":"address","name":"_token","type":"address"}],"name":"getTokenValue","outputs":[{"internalType":"uint256","name":"","type":"uint256"},{"internalType":"uint256","name":"","type":"uint256"}],"stateMutability":"view","type":"function"},{"inputs":[{"internalType":"address","name":"_user","type":"address"},{"internalType":"address","name":"_token","type":"address"}],"name":"getUserSingleTokenValue","outputs":[{"internalType":"uint256","name":"","type":"uint256"}],"stateMutability":"view","type":"function"},{"inputs":[{"internalType":"address","name":"_user","type":"address"}],"name":"getUserTotalValue","outputs":[{"internalType":"uint256","name":"","type":"uint256"}],"stateMutability":"view","type":"function"},{"inputs":[],"name":"golluxToken","outputs":[{"internalType":"contract IERC20","name":"","type":"address"}],"stateMutability":"view","type":"function"},{"inputs":[{"internalType":"address","name":"_user","type":"address"}],"name":"issueSingleToken","outputs":[],"stateMutability":"nonpayable","type":"function"},{"inputs":[],"name":"issueTokens","outputs":[],"stateMutability":"nonpayable","type":"function"},{"inputs":[],"name":"owner","outputs":[{"internalType":"address","name":"","type":"address"}],"stateMutability":"view","type":"function"},{"inputs":[],"name":"renounceOwnership","outputs":[],"stateMutability":"nonpayable","type":"function"},{"inputs":[{"internalType":"address","name":"_token","type":"address"},{"internalType":"address","name":"_priceFeed","type":"address"}],"name":"setPriceFeedContract","outputs":[],"stateMutability":"nonpayable","type":"function"},{"inputs":[{"internalType":"uint256","name":"_amount","type":"uint256"},{"internalType":"address","name":"_token","type":"address"}],"name":"stakeTokens","outputs":[],"stateMutability":"nonpayable","type":"function"},{"inputs":[{"internalType":"uint256","name":"","type":"uint256"}],"name":"stakers","outputs":[{"internalType":"address","name":"","type":"address"}],"stateMutability":"view","type":"function"},{"inputs":[{"internalType":"address","name":"","type":"address"},{"internalType":"address","name":"","type":"address"}],"name":"stakingBalance","outputs":[{"internalType":"uint256","name":"","type":"uint256"}],"stateMutability":"view","type":"function"},{"inputs":[{"internalType":"address","name":"_token","type":"address"}],"name":"tokenIsAllowed","outputs":[{"internalType":"bool","name":"","type":"bool"}],"stateMutability":"nonpayable","type":"function"},{"inputs":[{"internalType":"address","name":"","type":"address"}],"name":"tokenPriceFeedMapping","outputs":[{"internalType":"address","name":"","type":"address"}],"stateMutability":"view","type":"function"},{"inputs":[{"internalType":"address","name":"newOwner","type":"address"}],"name":"transferOwnership","outputs":[],"stateMutability":"nonpayable","type":"function"},{"inputs":[{"internalType":"address","name":"","type":"address"}],"name":"uniqueTokensStaked","outputs":[{"internalType":"uint256","name":"","type":"uint256"}],"stateMutability":"view","type":"function"},{"inputs":[{"internalType":"address","name":"_token","type":"address"}],"name":"unstakeTokens","outputs":[],"stateMutability":"nonpayable","type":"function"}],"bytecode":"608060405234801561001057600080fd5b5060405161112738038061112783398101604081905261002f916100ad565b6100383361005d565b600680546001600160a01b0319166001600160a01b03929092169190911790556100dd565b600080546001600160a01b038381166001600160a01b0319831681178455604051919092169283917f8be0079c531659141344cd1fd0a4f28419497f9722a3daafe3b4186f6b6457e09190a35050565b6000602082840312156100bf57600080fd5b81516001600160a01b03811681146100d657600080fd5b9392505050565b61103b806100ec6000396000f3fe608060405234801561001057600080fd5b50600436106101215760003560e01c80637eab502c116100ad578063b83e023411610071578063b83e023414610273578063dd5b846714610293578063f1c5d6c2146102b6578063f2fde38b146102de578063fd5e6dd1146102f157600080fd5b80637eab502c14610216578063877dd39d1461022957806388a0c3b31461023c5780638da5cb5b1461024f578063af3f5e221461026057600080fd5b806329161a00116100f457806329161a00146101b55780632d1ad8b8146101e05780635e5f2e26146101f357806360ab585214610206578063715018a61461020e57600080fd5b80630bea440d14610126578063171e44ea1461013b578063276b11da1461014e57806327927b3e14610174575b600080fd5b610139610134366004610ce9565b610304565b005b610139610149366004610d15565b6104db565b61016161015c366004610d37565b610557565b6040519081526020015b60405180910390f35b61019d610182366004610d15565b6003602052600090815260409020546001600160a01b031681565b6040516001600160a01b03909116815260200161016b565b6101616101c3366004610d37565b600160209081526000928352604080842090915290825290205481565b6101396101ee366004610d15565b6105de565b61019d610201366004610d61565b61070e565b610139610738565b610139610835565b60065461019d906001600160a01b031681565b610139610237366004610d37565b61086b565b61013961024a366004610d15565b6108c3565b6000546001600160a01b031661019d565b61016161026e366004610d15565b610941565b610161610281366004610d15565b60026020526000908152604090205481565b6102a66102a1366004610d15565b6109ff565b604051901515815260200161016b565b6102c96102c4366004610d15565b610a69565b6040805192835260208301919091520161016b565b6101396102ec366004610d15565b610b6a565b61019d6102ff366004610d61565b610c02565b600082116103595760405162461bcd60e51b815260206004820152601a60248201527f416d6f756e74206d757374206265206d6f7265207468616e203000000000000060448201526064015b60405180910390fd5b610362816109ff565b6103ae5760405162461bcd60e51b815260206004820152601e60248201527f546f6b656e2069732063757272656e746c79206e6f7420616c6c6f77656400006044820152606401610350565b6040516323b872dd60e01b8152336004820152306024820152604481018390526001600160a01b038216906323b872dd906064016020604051808303816000875af1158015610401573d6000803e3d6000fd5b505050506040513d601f19601f820116820180604052508101906104259190610d7a565b506104303382610c12565b6001600160a01b038116600090815260016020908152604080832033845290915290205461045f908390610db2565b6001600160a01b0382166000908152600160208181526040808420338552825280842094909455600290529190205414156104d757600580546001810182556000919091527f036b6384b5eca791c62761152d0c79bb0604c104a5fb6f4eb0703f3154bb3db00180546001600160a01b031916331790555b5050565b6000546001600160a01b031633146105055760405162461bcd60e51b815260040161035090610dca565b600480546001810182556000919091527f8a35acfbc15ff81a39ae7d344fd709f28e8600b4aa8c65c6b64bfe7fe36bd19b0180546001600160a01b0319166001600160a01b0392909216919091179055565b6001600160a01b03821660009081526002602052604081205461057c575060006105d8565b60008061058884610a69565b909250905061059881600a610ee3565b6001600160a01b038086166000908152600160209081526040808320938a16835292905220546105c9908490610eef565b6105d39190610f0e565b925050505b92915050565b6001600160a01b03811660009081526001602090815260408083203384529091529020548061064f5760405162461bcd60e51b815260206004820152601b60248201527f5374616b696e672062616c616e63652063616e6e6f74206265203000000000006044820152606401610350565b60405163a9059cbb60e01b8152336004820152602481018290526001600160a01b0383169063a9059cbb906044016020604051808303816000875af115801561069c573d6000803e3d6000fd5b505050506040513d601f19601f820116820180604052508101906106c09190610d7a565b506001600160a01b038216600090815260016020818152604080842033855282528084208490556002909152909120546106fa9190610f30565b336000908152600260205260409020555050565b6004818154811061071e57600080fd5b6000918252602090912001546001600160a01b0316905081565b6000546001600160a01b031633146107625760405162461bcd60e51b815260040161035090610dca565b60005b6005548110156108325760006005828154811061078457610784610f47565b60009182526020822001546001600160a01b031691506107a382610941565b60065460405163a9059cbb60e01b81526001600160a01b0385811660048301526024820184905292935091169063a9059cbb906044016020604051808303816000875af11580156107f8573d6000803e3d6000fd5b505050506040513d601f19601f8201168201806040525081019061081c9190610d7a565b505050808061082a90610f5d565b915050610765565b50565b6000546001600160a01b0316331461085f5760405162461bcd60e51b815260040161035090610dca565b6108696000610c7d565b565b6000546001600160a01b031633146108955760405162461bcd60e51b815260040161035090610dca565b6001600160a01b03918216600090815260036020526040902080546001600160a01b03191691909216179055565b60065460405163a9059cbb60e01b81526001600160a01b038381166004830152670de0b6b3a764000060248301529091169063a9059cbb906044016020604051808303816000875af115801561091d573d6000803e3d6000fd5b505050506040513d601f19601f820116820180604052508101906104d79190610d7a565b6001600160a01b038116600090815260026020526040812054819061099c5760405162461bcd60e51b81526020600482015260116024820152704e6f20746f6b656e73207374616b65642160781b6044820152606401610350565b60005b6004548110156109f8576109da84600483815481106109c0576109c0610f47565b6000918252602090912001546001600160a01b0316610557565b6109e49083610db2565b9150806109f081610f5d565b91505061099f565b5092915050565b6000805b600454811015610a6057826001600160a01b031660048281548110610a2a57610a2a610f47565b6000918252602090912001546001600160a01b03161415610a4e5750600192915050565b80610a5881610f5d565b915050610a03565b50600092915050565b6001600160a01b03808216600090815260036020526040808220548151633fabe5a360e21b815291519293849391169182918491839163feaf968c9160048082019260a0929091908290030181865afa158015610aca573d6000803e3d6000fd5b505050506040513d601f19601f82011682018060405250810190610aee9190610f92565b5050509150506000826001600160a01b031663313ce5676040518163ffffffff1660e01b8152600401602060405180830381865afa158015610b34573d6000803e3d6000fd5b505050506040513d601f19601f82011682018060405250810190610b589190610fe2565b919760ff909216965090945050505050565b6000546001600160a01b03163314610b945760405162461bcd60e51b815260040161035090610dca565b6001600160a01b038116610bf95760405162461bcd60e51b815260206004820152602660248201527f4f776e61626c653a206e6577206f776e657220697320746865207a65726f206160448201526564647265737360d01b6064820152608401610350565b61083281610c7d565b6005818154811061071e57600080fd5b6001600160a01b038082166000908152600160209081526040808320938616835292905220546104d7576001600160a01b038216600090815260026020526040902054610c60906001610db2565b6001600160a01b0383166000908152600260205260409020555050565b600080546001600160a01b038381166001600160a01b0319831681178455604051919092169283917f8be0079c531659141344cd1fd0a4f28419497f9722a3daafe3b4186f6b6457e09190a35050565b80356001600160a01b0381168114610ce457600080fd5b919050565b60008060408385031215610cfc57600080fd5b82359150610d0c60208401610ccd565b90509250929050565b600060208284031215610d2757600080fd5b610d3082610ccd565b9392505050565b60008060408385031215610d4a57600080fd5b610d5383610ccd565b9150610d0c60208401610ccd565b600060208284031215610d7357600080fd5b5035919050565b600060208284031215610d8c57600080fd5b81518015158114610d3057600080fd5b634e487b7160e01b600052601160045260246000fd5b60008219821115610dc557610dc5610d9c565b500190565b6020808252818101527f4f776e61626c653a2063616c6c6572206973206e6f7420746865206f776e6572604082015260600190565b600181815b80851115610e3a578160001904821115610e2057610e20610d9c565b80851615610e2d57918102915b93841c9390800290610e04565b509250929050565b600082610e51575060016105d8565b81610e5e575060006105d8565b8160018114610e745760028114610e7e57610e9a565b60019150506105d8565b60ff841115610e8f57610e8f610d9c565b50506001821b6105d8565b5060208310610133831016604e8410600b8410161715610ebd575081810a6105d8565b610ec78383610dff565b8060001904821115610edb57610edb610d9c565b029392505050565b6000610d308383610e42565b6000816000190483118215151615610f0957610f09610d9c565b500290565b600082610f2b57634e487b7160e01b600052601260045260246000fd5b500490565b600082821015610f4257610f42610d9c565b500390565b634e487b7160e01b600052603260045260246000fd5b6000600019821415610f7157610f71610d9c565b5060010190565b805169ffffffffffffffffffff81168114610ce457600080fd5b600080600080600060a08688031215610faa57600080fd5b610fb386610f78565b9450602086015193506040860151925060608601519150610fd660808701610f78565b90509295509295909350565b600060208284031215610ff457600080fd5b815160ff81168114610d3057600080fdfea264697066735822122002637324e8dde1c9771497c37bb7c79fc65b1b208662bd5032fa22205ea17fad64736f6c634300080a0033","bytecodeSha1":"279634a700beadb7c083c754dda99a7670da9423","compiler":{"evm_version":"istanbul","optimizer":{"enabled":true,"runs":200},"version":"0.8.10+commit.fc410830"},"contractName":"TokenFarm","language":"Solidity","natspec":{"kind":"dev","methods":{"owner()":{"details":"Returns the address of the current owner."},"renounceOwnership()":{"details":"Leaves the contract without owner. It will not be possible to call `onlyOwner` functions anymore. Can only be called by the current owner. NOTE: Renouncing ownership will leave the contract without an owner, thereby removing any functionality that is only available to the owner."},"transferOwnership(address)":{"details":"Transfers ownership of the contract to a new account (`newOwner`). Can only be called by the current owner."}},"version":1},"opcodes":"PUSH1 0x80 PUSH1 0x40 MSTORE CALLVALUE DUP1 ISZERO PUSH2 0x10 JUMPI PUSH1 0x0 DUP1 REVERT JUMPDEST POP PUSH1 0x4 CALLDATASIZE LT PUSH2 0x121 JUMPI PUSH1 0x0 CALLDATALOAD PUSH1 0xE0 SHR DUP1 PUSH4 0x7EAB502C GT PUSH2 0xAD JUMPI DUP1 PUSH4 0xB83E0234 GT PUSH2 0x71 JUMPI DUP1 PUSH4 0xB83E0234 EQ PUSH2 0x273 JUMPI DUP1 PUSH4 0xDD5B8467 EQ PUSH2 0x293 JUMPI DUP1 PUSH4 0xF1C5D6C2 EQ PUSH2 0x2B6 JUMPI DUP1 PUSH4 0xF2FDE38B EQ PUSH2 0x2DE JUMPI DUP1 PUSH4 0xFD5E6DD1 EQ PUSH2 0x2F1 JUMPI PUSH1 0x0 DUP1 REVERT JUMPDEST DUP1 PUSH4 0x7EAB502C EQ PUSH2 0x216 JUMPI DUP1 PUSH4 0x877DD39D EQ PUSH2 0x229 JUMPI DUP1 PUSH4 0x88A0C3B3 EQ PUSH2 0x23C JUMPI DUP1 PUSH4 0x8DA5CB5B EQ PUSH2 0x24F JUMPI DUP1 PUSH4 0xAF3F5E22 EQ PUSH2 0x260 JUMPI PUSH1 0x0 DUP1 REVERT JUMPDEST DUP1 PUSH4 0x29161A00 GT PUSH2 0xF4 JUMPI DUP1 PUSH4 0x29161A00 EQ PUSH2 0x1B5 JUMPI DUP1 PUSH4 0x2D1AD8B8 EQ PUSH2 0x1E0 JUMPI DUP1 PUSH4 0x5E5F2E26 EQ PUSH2 0x1F3 JUMPI DUP1 PUSH4 0x60AB5852 EQ PUSH2 0x206 JUMPI DUP1 PUSH4 0x715018A6 EQ PUSH2 0x20E JUMPI PUSH1 0x0 DUP1 REVERT JUMPDEST DUP1 PUSH4 0xBEA440D EQ PUSH2 0x126 JUMPI DUP1 PUSH4 0x171E44EA EQ PUSH2 0x13B JUMPI DUP1 PUSH4 0x276B11DA EQ PUSH2 0x14E JUMPI DUP1 PUSH4 0x27927B3E EQ PUSH2 0x174 JUMPI JUMPDEST PUSH1 0x0 DUP1 REVERT JUMPDEST PUSH2 0x139 PUSH2 0x134 CALLDATASIZE PUSH1 0x4 PUSH2 0xCE9 JUMP JUMPDEST PUSH2 0x304 JUMP JUMPDEST STOP JUMPDEST PUSH2 0x139 PUSH2 0x149 CALLDATASIZE PUSH1 0x4 PUSH2 0xD15 JUMP JUMPDEST PUSH2 0x4DB JUMP JUMPDEST PUSH2 0x161 PUSH2 0x15C CALLDATASIZE PUSH1 0x4 PUSH2 0xD37 JUMP JUMPDEST PUSH2 0x557 JUMP JUMPDEST PUSH1 0x40 MLOAD SWAP1 DUP2 MSTORE PUSH1 0x20 ADD JUMPDEST PUSH1 0x40 MLOAD DUP1 SWAP2 SUB SWAP1 RETURN JUMPDEST PUSH2 0x19D PUSH2 0x182 CALLDATASIZE PUSH1 0x4 PUSH2 0xD15 JUMP JUMPDEST PUSH1 0x3 PUSH1 0x20 MSTORE PUSH1 0x0 SWAP1 DUP2 MSTORE PUSH1 0x40 SWAP1 KECCAK256 SLOAD PUSH1 0x1 PUSH1 0x1 PUSH1 0xA0 SHL SUB AND DUP2 JUMP JUMPDEST PUSH1 0x40 MLOAD PUSH1 0x1 PUSH1 0x1 PUSH1 0xA0 SHL SUB SWAP1 SWAP2 AND DUP2 MSTORE PUSH1 0x20 ADD PUSH2 0x16B JUMP JUMPDEST PUSH2 0x161 PUSH2 0x1C3 CALLDATASIZE PUSH1 0x4 PUSH2 0xD37 JUMP JUMPDEST PUSH1 0x1 PUSH1 0x20 SWAP1 DUP2 MSTORE PUSH1 0x0 SWAP3 DUP4 MSTORE PUSH1 0x40 DUP1 DUP5 KECCAK256 SWAP1 SWAP2 MSTORE SWAP1 DUP3 MSTORE SWAP1 KECCAK256 SLOAD DUP2 JUMP JUMPDEST PUSH2 0x139 PUSH2 0x1EE CALLDATASIZE PUSH1 0x4 PUSH2 0xD15 JUMP JUMPDEST PUSH2 0x5DE JUMP JUMPDEST PUSH2 0x19D PUSH2 0x201 CALLDATASIZE PUSH1 0x4 PUSH2 0xD61 JUMP JUMPDEST PUSH2 0x70E JUMP JUMPDEST PUSH2 0x139 PUSH2 0x738 JUMP JUMPDEST PUSH2 0x139 PUSH2 0x835 JUMP JUMPDEST PUSH1 0x6 SLOAD PUSH2 0x19D SWAP1 PUSH1 0x1 PUSH1 0x1 PUSH1 0xA0 SHL SUB AND DUP2 JUMP JUMPDEST PUSH2 0x139 PUSH2 0x237 CALLDATASIZE PUSH1 0x4 PUSH2 0xD37 JUMP JUMPDEST PUSH2 0x86B JUMP JUMPDEST PUSH2 0x139 PUSH2 0x24A CALLDATASIZE PUSH1 0x4 PUSH2 0xD15 JUMP JUMPDEST PUSH2 0x8C3 JUMP JUMPDEST PUSH1 0x0 SLOAD PUSH1 0x1 PUSH1 0x1 PUSH1 0xA0 SHL SUB AND PUSH2 0x19D JUMP JUMPDEST PUSH2 0x161 PUSH2 0x26E CALLDATASIZE PUSH1 0x4 PUSH2 0xD15 JUMP JUMPDEST PUSH2 0x941 JUMP JUMPDEST PUSH2 0x161 PUSH2 0x281 CALLDATASIZE PUSH1 0x4 PUSH2 0xD15 JUMP JUMPDEST PUSH1 0x2 PUSH1 0x20 MSTORE PUSH1 0x0 SWAP1 DUP2 MSTORE PUSH1 0x40 SWAP1 KECCAK256 SLOAD DUP2 JUMP JUMPDEST PUSH2 0x2A6 PUSH2 0x2A1 CALLDATASIZE PUSH1 0x4 PUSH2 0xD15 JUMP JUMPDEST PUSH2 0x9FF JUMP JUMPDEST PUSH1 0x40 MLOAD SWAP1 ISZERO ISZERO DUP2 MSTORE PUSH1 0x20 ADD PUSH2 0x16B JUMP JUMPDEST PUSH2 0x2C9 PUSH2 0x2C4 CALLDATASIZE PUSH1 0x4 PUSH2 0xD15 JUMP JUMPDEST PUSH2 0xA69 JUMP JUMPDEST PUSH1 0x40 DUP1 MLOAD SWAP3 DUP4 MSTORE PUSH1 0x20 DUP4 ADD SWAP2 SWAP1 SWAP2 MSTORE ADD PUSH2 0x16B JUMP JUMPDEST PUSH2 0x139 PUSH2 0x2EC CALLDATASIZE PUSH1 0x4 PUSH2 0xD15 JUMP JUMPDEST PUSH2 0xB6A JUMP JUMPDEST PUSH2 0x19D PUSH2 0x2FF CALLDATASIZE PUSH1 0x4 PUSH2 0xD61 JUMP JUMPDEST PUSH2 0xC02 JUMP JUMPDEST PUSH1 0x0 DUP3 GT PUSH2 0x359 JUMPI PUSH1 0x40 MLOAD PUSH3 0x461BCD PUSH1 0xE5 SHL DUP2 MSTORE PUSH1 0x20 PUSH1 0x4 DUP3 ADD MSTORE PUSH1 0x1A PUSH1 0x24 DUP3 ADD MSTORE PUSH32 0x416D6F756E74206D757374206265206D6F7265207468616E2030000000000000 PUSH1 0x44 DUP3 ADD MSTORE PUSH1 0x64 ADD JUMPDEST PUSH1 0x40 MLOAD DUP1 SWAP2 SUB SWAP1 REVERT JUMPDEST PUSH2 0x362 DUP2 PUSH2 0x9FF JUMP JUMPDEST PUSH2 0x3AE JUMPI PUSH1 0x40 MLOAD PUSH3 0x461BCD PUSH1 0xE5 SHL DUP2 MSTORE PUSH1 0x20 PUSH1 0x4 DUP3 ADD MSTORE PUSH1 0x1E PUSH1 0x24 DUP3 ADD MSTORE PUSH32 0x546F6B656E2069732063757272656E746C79206E6F7420616C6C6F7765640000 PUSH1 0x44 DUP3 ADD MSTORE PUSH1 0x64 ADD PUSH2 0x350 JUMP JUMPDEST PUSH1 0x40 MLOAD PUSH4 0x23B872DD PUSH1 0xE0 SHL DUP2 MSTORE CALLER PUSH1 0x4 DUP3 ADD MSTORE ADDRESS PUSH1 0x24 DUP3 ADD MSTORE PUSH1 0x44 DUP2 ADD DUP4 SWAP1 MSTORE PUSH1 0x1 PUSH1 0x1 PUSH1 0xA0 SHL SUB DUP3 AND SWAP1 PUSH4 0x23B872DD SWAP1 PUSH1 0x64 ADD PUSH1 0x20 PUSH1 0x40 MLOAD DUP1 DUP4 SUB DUP2 PUSH1 0x0 DUP8 GAS CALL ISZERO DUP1 ISZERO PUSH2 0x401 JUMPI RETURNDATASIZE PUSH1 0x0 DUP1 RETURNDATACOPY RETURNDATASIZE PUSH1 0x0 REVERT JUMPDEST POP POP POP POP PUSH1 0x40 MLOAD RETURNDATASIZE PUSH1 0x1F NOT PUSH1 0x1F DUP3 ADD AND DUP3 ADD DUP1 PUSH1 0x40 MSTORE POP DUP2 ADD SWAP1 PUSH2 0x425 SWAP2 SWAP1 PUSH2 0xD7A JUMP JUMPDEST POP PUSH2 0x430 CALLER DUP3 PUSH2 0xC12 JUMP JUMPDEST PUSH1 0x1 PUSH1 0x1 PUSH1 0xA0 SHL SUB DUP2 AND PUSH1 0x0 SWAP1 DUP2 MSTORE PUSH1 0x1 PUSH1 0x20 SWAP1 DUP2 MSTORE PUSH1 0x40 DUP1 DUP4 KECCAK256 CALLER DUP5 MSTORE SWAP1 SWAP2 MSTORE SWAP1 KECCAK256 SLOAD PUSH2 0x45F SWAP1 DUP4 SWAP1 PUSH2 0xDB2 JUMP JUMPDEST PUSH1 0x1 PUSH1 0x1 PUSH1 0xA0 SHL SUB DUP3 AND PUSH1 0x0 SWAP1 DUP2 MSTORE PUSH1 0x1 PUSH1 0x20 DUP2 DUP2 MSTORE PUSH1 0x40 DUP1 DUP5 KECCAK256 CALLER DUP6 MSTORE DUP3 MSTORE DUP1 DUP5 KECCAK256 SWAP5 SWAP1 SWAP5 SSTORE PUSH1 0x2 SWAP1 MSTORE SWAP2 SWAP1 KECCAK256 SLOAD EQ ISZERO PUSH2 0x4D7 JUMPI PUSH1 0x5 DUP1 SLOAD PUSH1 0x1 DUP2 ADD DUP3 SSTORE PUSH1 0x0 SWAP2 SWAP1 SWAP2 MSTORE PUSH32 0x36B6384B5ECA791C62761152D0C79BB0604C104A5FB6F4EB0703F3154BB3DB0 ADD DUP1 SLOAD PUSH1 0x1 PUSH1 0x1 PUSH1 0xA0 SHL SUB NOT AND CALLER OR SWAP1 SSTORE JUMPDEST POP POP JUMP JUMPDEST PUSH1 0x0 SLOAD PUSH1 0x1 PUSH1 0x1 PUSH1 0xA0 SHL SUB AND CALLER EQ PUSH2 0x505 JUMPI PUSH1 0x40 MLOAD PUSH3 0x461BCD PUSH1 0xE5 SHL DUP2 MSTORE PUSH1 0x4 ADD PUSH2 0x350 SWAP1 PUSH2 0xDCA JUMP JUMPDEST PUSH1 0x4 DUP1 SLOAD PUSH1 0x1 DUP2 ADD DUP3 SSTORE PUSH1 0x0 SWAP2 SWAP1 SWAP2 MSTORE PUSH32 0x8A35ACFBC15FF81A39AE7D344FD709F28E8600B4AA8C65C6B64BFE7FE36BD19B ADD DUP1 SLOAD PUSH1 0x1 PUSH1 0x1 PUSH1 0xA0 SHL SUB NOT AND PUSH1 0x1 PUSH1 0x1 PUSH1 0xA0 SHL SUB SWAP3 SWAP1 SWAP3 AND SWAP2 SWAP1 SWAP2 OR SWAP1 SSTORE JUMP JUMPDEST PUSH1 0x1 PUSH1 0x1 PUSH1 0xA0 SHL SUB DUP3 AND PUSH1 0x0 SWAP1 DUP2 MSTORE PUSH1 0x2 PUSH1 0x20 MSTORE PUSH1 0x40 DUP2 KECCAK256 SLOAD PUSH2 0x57C JUMPI POP PUSH1 0x0 PUSH2 0x5D8 JUMP JUMPDEST PUSH1 0x0 DUP1 PUSH2 0x588 DUP5 PUSH2 0xA69 JUMP JUMPDEST SWAP1 SWAP3 POP SWAP1 POP PUSH2 0x598 DUP2 PUSH1 0xA PUSH2 0xEE3 JUMP JUMPDEST PUSH1 0x1 PUSH1 0x1 PUSH1 0xA0 SHL SUB DUP1 DUP7 AND PUSH1 0x0 SWAP1 DUP2 MSTORE PUSH1 0x1 PUSH1 0x20 SWAP1 DUP2 MSTORE PUSH1 0x40 DUP1 DUP4 KECCAK256 SWAP4 DUP11 AND DUP4 MSTORE SWAP3 SWAP1 MSTORE KECCAK256 SLOAD PUSH2 0x5C9 SWAP1 DUP5 SWAP1 PUSH2 0xEEF JUMP JUMPDEST PUSH2 0x5D3 SWAP2 SWAP1 PUSH2 0xF0E JUMP JUMPDEST SWAP3 POP POP POP JUMPDEST SWAP3 SWAP2 POP POP JUMP JUMPDEST PUSH1 0x1 PUSH1 0x1 PUSH1 0xA0 SHL SUB DUP2 AND PUSH1 0x0 SWAP1 DUP2 MSTORE PUSH1 0x1 PUSH1 0x20 SWAP1 DUP2 MSTORE PUSH1 0x40 DUP1 DUP4 KECCAK256 CALLER DUP5 MSTORE SWAP1 SWAP2 MSTORE SWAP1 KECCAK256 SLOAD DUP1 PUSH2 0x64F JUMPI PUSH1 0x40 MLOAD PUSH3 0x461BCD PUSH1 0xE5 SHL DUP2 MSTORE PUSH1 0x20 PUSH1 0x4 DUP3 ADD MSTORE PUSH1 0x1B PUSH1 0x24 DUP3 ADD MSTORE PUSH32 0x5374616B696E672062616C616E63652063616E6E6F7420626520300000000000 PUSH1 0x44 DUP3 ADD MSTORE PUSH1 0x64 ADD PUSH2 0x350 JUMP JUMPDEST PUSH1 0x40 MLOAD PUSH4 0xA9059CBB PUSH1 0xE0 SHL DUP2 MSTORE CALLER PUSH1 0x4 DUP3 ADD MSTORE PUSH1 0x24 DUP2 ADD DUP3 SWAP1 MSTORE PUSH1 0x1 PUSH1 0x1 PUSH1 0xA0 SHL SUB DUP4 AND SWAP1 PUSH4 0xA9059CBB SWAP1 PUSH1 0x44 ADD PUSH1 0x20 PUSH1 0x40 MLOAD DUP1 DUP4 SUB DUP2 PUSH1 0x0 DUP8 GAS CALL ISZERO DUP1 ISZERO PUSH2 0x69C JUMPI RETURNDATASIZE PUSH1 0x0 DUP1 RETURNDATACOPY RETURNDATASIZE PUSH1 0x0 REVERT JUMPDEST POP POP POP POP PUSH1 0x40 MLOAD RETURNDATASIZE PUSH1 0x1F NOT PUSH1 0x1F DUP3 ADD AND DUP3 ADD DUP1 PUSH1 0x40 MSTORE POP DUP2 ADD SWAP1 PUSH2 0x6C0 SWAP2 SWAP1 PUSH2 0xD7A JUMP JUMPDEST POP PUSH1 0x1 PUSH1 0x1 PUSH1 0xA0 SHL SUB DUP3 AND PUSH1 0x0 SWAP1 DUP2 MSTORE PUSH1 0x1 PUSH1 0x20 DUP2 DUP2 MSTORE PUSH1 0x40 DUP1 DUP5 KECCAK256 CALLER DUP6 MSTORE DUP3 MSTORE DUP1 DUP5 KECCAK256 DUP5 SWAP1 SSTORE PUSH1 0x2 SWAP1 SWAP2 MSTORE SWAP1 SWAP2 KECCAK256 SLOAD PUSH2 0x6FA SWAP2 SWAP1 PUSH2 0xF30 JUMP JUMPDEST CALLER PUSH1 0x0 SWAP1 DUP2 MSTORE PUSH1 0x2 PUSH1 0x20 MSTORE PUSH1 0x40 SWAP1 KECCAK256 SSTORE POP POP JUMP JUMPDEST PUSH1 0x4 DUP2 DUP2 SLOAD DUP2 LT PUSH2 0x71E JUMPI PUSH1 0x0 DUP1 REVERT JUMPDEST PUSH1 0x0 SWAP2 DUP3 MSTORE PUSH1 0x20 SWAP1 SWAP2 KECCAK256 ADD SLOAD PUSH1 0x1 PUSH1 0x1 PUSH1 0xA0 SHL SUB AND SWAP1 POP DUP2 JUMP JUMPDEST PUSH1 0x0 SLOAD PUSH1 0x1 PUSH1 0x1 PUSH1 0xA0 SHL SUB AND CALLER EQ PUSH2 0x762 JUMPI PUSH1 0x40 MLOAD PUSH3 0x461BCD PUSH1 0xE5 SHL DUP2 MSTORE PUSH1 0x4 ADD PUSH2 0x350 SWAP1 PUSH2 0xDCA JUMP JUMPDEST PUSH1 0x0 JUMPDEST PUSH1 0x5 SLOAD DUP2 LT ISZERO PUSH2 0x832 JUMPI PUSH1 0x0 PUSH1 0x5 DUP3 DUP2 SLOAD DUP2 LT PUSH2 0x784 JUMPI PUSH2 0x784 PUSH2 0xF47 JUMP JUMPDEST PUSH1 0x0 SWAP2 DUP3 MSTORE PUSH1 0x20 DUP3 KECCAK256 ADD SLOAD PUSH1 0x1 PUSH1 0x1 PUSH1 0xA0 SHL SUB AND SWAP2 POP PUSH2 0x7A3 DUP3 PUSH2 0x941 JUMP JUMPDEST PUSH1 0x6 SLOAD PUSH1 0x40 MLOAD PUSH4 0xA9059CBB PUSH1 0xE0 SHL DUP2 MSTORE PUSH1 0x1 PUSH1 0x1 PUSH1 0xA0 SHL SUB DUP6 DUP2 AND PUSH1 0x4 DUP4 ADD MSTORE PUSH1 0x24 DUP3 ADD DUP5 SWAP1 MSTORE SWAP3 SWAP4 POP SWAP2 AND SWAP1 PUSH4 0xA9059CBB SWAP1 PUSH1 0x44 ADD PUSH1 0x20 PUSH1 0x40 MLOAD DUP1 DUP4 SUB DUP2 PUSH1 0x0 DUP8 GAS CALL ISZERO DUP1 ISZERO PUSH2 0x7F8 JUMPI RETURNDATASIZE PUSH1 0x0 DUP1 RETURNDATACOPY RETURNDATASIZE PUSH1 0x0 REVERT JUMPDEST POP POP POP POP PUSH1 0x40 MLOAD RETURNDATASIZE PUSH1 0x1F NOT PUSH1 0x1F DUP3 ADD AND DUP3 ADD DUP1 PUSH1 0x40 MSTORE POP DUP2 ADD SWAP1 PUSH2 0x81C SWAP2 SWAP1 PUSH2 0xD7A JUMP JUMPDEST POP POP POP DUP1 DUP1 PUSH2 0x82A SWAP1 PUSH2 0xF5D JUMP JUMPDEST SWAP2 POP POP PUSH2 0x765 JUMP JUMPDEST POP JUMP JUMPDEST PUSH1 0x0 SLOAD PUSH1 0x1 PUSH1 0x1 PUSH1 0xA0 SHL SUB AND CALLER EQ PUSH2 0x85F JUMPI PUSH1 0x40 MLOAD PUSH3 0x461BCD PUSH1 0xE5 SHL DUP2 MSTORE PUSH1 0x4 ADD PUSH2 0x350 SWAP1 PUSH2 0xDCA JUMP JUMPDEST PUSH2 0x869 PUSH1 0x0 PUSH2 0xC7D JUMP JUMPDEST JUMP JUMPDEST PUSH1 0x0 SLOAD PUSH1 0x1 PUSH1 0x1 PUSH1 0xA0 SHL SUB AND CALLER EQ PUSH2 0x895 JUMPI PUSH1 0x40 MLOAD PUSH3 0x461BCD PUSH1 0xE5 SHL DUP2 MSTORE PUSH1 0x4 ADD PUSH2 0x350 SWAP1 PUSH2 0xDCA JUMP JUMPDEST PUSH1 0x1 PUSH1 0x1 PUSH1 0xA0 SHL SUB SWAP2 DUP3 AND PUSH1 0x0 SWAP1 DUP2 MSTORE PUSH1 0x3 PUSH1 0x20 MSTORE PUSH1 0x40 SWAP1 KECCAK256 DUP1 SLOAD PUSH1 0x1 PUSH1 0x1 PUSH1 0xA0 SHL SUB NOT AND SWAP2 SWAP1 SWAP3 AND OR SWAP1 SSTORE JUMP JUMPDEST PUSH1 0x6 SLOAD PUSH1 0x40 MLOAD PUSH4 0xA9059CBB PUSH1 0xE0 SHL DUP2 MSTORE PUSH1 0x1 PUSH1 0x1 PUSH1 0xA0 SHL SUB DUP4 DUP2 AND PUSH1 0x4 DUP4 ADD MSTORE PUSH8 0xDE0B6B3A7640000 PUSH1 0x24 DUP4 ADD MSTORE SWAP1 SWAP2 AND SWAP1 PUSH4 0xA9059CBB SWAP1 PUSH1 0x44 ADD PUSH1 0x20 PUSH1 0x40 MLOAD DUP1 DUP4 SUB DUP2 PUSH1 0x0 DUP8 GAS CALL ISZERO DUP1 ISZERO PUSH2 0x91D JUMPI RETURNDATASIZE PUSH1 0x0 DUP1 RETURNDATACOPY RETURNDATASIZE PUSH1 0x0 REVERT JUMPDEST POP POP POP POP PUSH1 0x40 MLOAD RETURNDATASIZE PUSH1 0x1F NOT PUSH1 0x1F DUP3 ADD AND DUP3 ADD DUP1 PUSH1 0x40 MSTORE POP DUP2 ADD SWAP1 PUSH2 0x4D7 SWAP2 SWAP1 PUSH2 0xD7A JUMP JUMPDEST PUSH1 0x1 PUSH1 0x1 PUSH1 0xA0 SHL SUB DUP2 AND PUSH1 0x0 SWAP1 DUP2 MSTORE PUSH1 0x2 PUSH1 0x20 MSTORE PUSH1 0x40 DUP2 KECCAK256 SLOAD DUP2 SWAP1 PUSH2 0x99C JUMPI PUSH1 0x40 MLOAD PUSH3 0x461BCD PUSH1 0xE5 SHL DUP2 MSTORE PUSH1 0x20 PUSH1 0x4 DUP3 ADD MSTORE PUSH1 0x11 PUSH1 0x24 DUP3 ADD MSTORE PUSH17 0x4E6F20746F6B656E73207374616B656421 PUSH1 0x78 SHL PUSH1 0x44 DUP3 ADD MSTORE PUSH1 0x64 ADD PUSH2 0x350 JUMP JUMPDEST PUSH1 0x0 JUMPDEST PUSH1 0x4 SLOAD DUP2 LT ISZERO PUSH2 0x9F8 JUMPI PUSH2 0x9DA DUP5 PUSH1 0x4 DUP4 DUP2 SLOAD DUP2 LT PUSH2 0x9C0 JUMPI PUSH2 0x9C0 PUSH2 0xF47 JUMP JUMPDEST PUSH1 0x0 SWAP2 DUP3 MSTORE PUSH1 0x20 SWAP1 SWAP2 KECCAK256 ADD SLOAD PUSH1 0x1 PUSH1 0x1 PUSH1 0xA0 SHL SUB AND PUSH2 0x557 JUMP JUMPDEST PUSH2 0x9E4 SWAP1 DUP4 PUSH2 0xDB2 JUMP JUMPDEST SWAP2 POP DUP1 PUSH2 0x9F0 DUP2 PUSH2 0xF5D JUMP JUMPDEST SWAP2 POP POP PUSH2 0x99F JUMP JUMPDEST POP SWAP3 SWAP2 POP POP JUMP JUMPDEST PUSH1 0x0 DUP1 JUMPDEST PUSH1 0x4 SLOAD DUP2 LT ISZERO PUSH2 0xA60 JUMPI DUP3 PUSH1 0x1 PUSH1 0x1 PUSH1 0xA0 SHL SUB AND PUSH1 0x4 DUP3 DUP2 SLOAD DUP2 LT PUSH2 0xA2A JUMPI PUSH2 0xA2A PUSH2 0xF47 JUMP JUMPDEST PUSH1 0x0 SWAP2 DUP3 MSTORE PUSH1 0x20 SWAP1 SWAP2 KECCAK256 ADD SLOAD PUSH1 0x1 PUSH1 0x1 PUSH1 0xA0 SHL SUB AND EQ ISZERO PUSH2 0xA4E JUMPI POP PUSH1 0x1 SWAP3 SWAP2 POP POP JUMP JUMPDEST DUP1 PUSH2 0xA58 DUP2 PUSH2 0xF5D JUMP JUMPDEST SWAP2 POP POP PUSH2 0xA03 JUMP JUMPDEST POP PUSH1 0x0 SWAP3 SWAP2 POP POP JUMP JUMPDEST PUSH1 0x1 PUSH1 0x1 PUSH1 0xA0 SHL SUB DUP1 DUP3 AND PUSH1 0x0 SWAP1 DUP2 MSTORE PUSH1 0x3 PUSH1 0x20 MSTORE PUSH1 0x40 DUP1 DUP3 KECCAK256 SLOAD DUP2 MLOAD PUSH4 0x3FABE5A3 PUSH1 0xE2 SHL DUP2 MSTORE SWAP2 MLOAD SWAP3 SWAP4 DUP5 SWAP4 SWAP2 AND SWAP2 DUP3 SWAP2 DUP5 SWAP2 DUP4 SWAP2 PUSH4 0xFEAF968C SWAP2 PUSH1 0x4 DUP1 DUP3 ADD SWAP3 PUSH1 0xA0 SWAP3 SWAP1 SWAP2 SWAP1 DUP3 SWAP1 SUB ADD DUP2 DUP7 GAS STATICCALL ISZERO DUP1 ISZERO PUSH2 0xACA JUMPI RETURNDATASIZE PUSH1 0x0 DUP1 RETURNDATACOPY RETURNDATASIZE PUSH1 0x0 REVERT JUMPDEST POP POP POP POP PUSH1 0x40 MLOAD RETURNDATASIZE PUSH1 0x1F NOT PUSH1 0x1F DUP3 ADD AND DUP3 ADD DUP1 PUSH1 0x40 MSTORE POP DUP2 ADD SWAP1 PUSH2 0xAEE SWAP2 SWAP1 PUSH2 0xF92 JUMP JUMPDEST POP POP POP SWAP2 POP POP PUSH1 0x0 DUP3 PUSH1 0x1 PUSH1 0x1 PUSH1 0xA0 SHL SUB AND PUSH4 0x313CE567 PUSH1 0x40 MLOAD DUP2 PUSH4 0xFFFFFFFF AND PUSH1 0xE0 SHL DUP2 MSTORE PUSH1 0x4 ADD PUSH1 0x20 PUSH1 0x40 MLOAD DUP1 DUP4 SUB DUP2 DUP7 GAS STATICCALL ISZERO DUP1 ISZERO PUSH2 0xB34 JUMPI RETURNDATASIZE PUSH1 0x0 DUP1 RETURNDATACOPY RETURNDATASIZE PUSH1 0x0 REVERT JUMPDEST POP POP POP POP PUSH1 0x40 MLOAD RETURNDATASIZE PUSH1 0x1F NOT PUSH1 0x1F DUP3 ADD AND DUP3 ADD DUP1 PUSH1 0x40 MSTORE POP DUP2 ADD SWAP1 PUSH2 0xB58 SWAP2 SWAP1 PUSH2 0xFE2 JUMP JUMPDEST SWAP2 SWAP8 PUSH1 0xFF SWAP1 SWAP3 AND SWAP7 POP SWAP1 SWAP5 POP POP POP POP POP JUMP JUMPDEST PUSH1 0x0 SLOAD PUSH1 0x1 PUSH1 0x1 PUSH1 0xA0 SHL SUB AND CALLER EQ PUSH2 0xB94 JUMPI PUSH1 0x40 MLOAD PUSH3 0x461BCD PUSH1 0xE5 SHL DUP2 MSTORE PUSH1 0x4 ADD PUSH2 0x350 SWAP1 PUSH2 0xDCA JUMP JUMPDEST PUSH1 0x1 PUSH1 0x1 PUSH1 0xA0 SHL SUB DUP2 AND PUSH2 0xBF9 JUMPI PUSH1 0x40 MLOAD PUSH3 0x461BCD PUSH1 0xE5 SHL DUP2 MSTORE PUSH1 0x20 PUSH1 0x4 DUP3 ADD MSTORE PUSH1 0x26 PUSH1 0x24 DUP3 ADD MSTORE PUSH32 0x4F776E61626C653A206E6577206F776E657220697320746865207A65726F2061 PUSH1 0x44 DUP3 ADD MSTORE PUSH6 0x646472657373 PUSH1 0xD0 SHL PUSH1 0x64 DUP3 ADD MSTORE PUSH1 0x84 ADD PUSH2 0x350 JUMP JUMPDEST PUSH2 0x832 DUP2 PUSH2 0xC7D JUMP JUMPDEST PUSH1 0x5 DUP2 DUP2 SLOAD DUP2 LT PUSH2 0x71E JUMPI PUSH1 0x0 DUP1 REVERT JUMPDEST PUSH1 0x1 PUSH1 0x1 PUSH1 0xA0 SHL SUB DUP1 DUP3 AND PUSH1 0x0 SWAP1 DUP2 MSTORE PUSH1 0x1 PUSH1 0x20 SWAP1 DUP2 MSTORE PUSH1 0x40 DUP1 DUP4 KECCAK256 SWAP4 DUP7 AND DUP4 MSTORE SWAP3 SWAP1 MSTORE KECCAK256 SLOAD PUSH2 0x4D7 JUMPI PUSH1 0x1 PUSH1 0x1 PUSH1 0xA0 SHL SUB DUP3 AND PUSH1 0x0 SWAP1 DUP2 MSTORE PUSH1 0x2 PUSH1 0x20 MSTORE PUSH1 0x40 SWAP1 KECCAK256 SLOAD PUSH2 0xC60 SWAP1 PUSH1 0x1 PUSH2 0xDB2 JUMP JUMPDEST PUSH1 0x1 PUSH1 0x1 PUSH1 0xA0 SHL SUB DUP4 AND PUSH1 0x0 SWAP1 DUP2 MSTORE PUSH1 0x2 PUSH1 0x20 MSTORE PUSH1 0x40 SWAP1 KECCAK256 SSTORE POP POP JUMP JUMPDEST PUSH1 0x0 DUP1 SLOAD PUSH1 0x1 PUSH1 0x1 PUSH1 0xA0 SHL SUB DUP4 DUP2 AND PUSH1 0x1 PUSH1 0x1 PUSH1 0xA0 SHL SUB NOT DUP4 AND DUP2 OR DUP5 SSTORE PUSH1 0x40 MLOAD SWAP2 SWAP1 SWAP3 AND SWAP3 DUP4 SWAP2 PUSH32 0x8BE0079C531659141344CD1FD0A4F28419497F9722A3DAAFE3B4186F6B6457E0 SWAP2 SWAP1 LOG3 POP POP JUMP JUMPDEST DUP1 CALLDATALOAD PUSH1 0x1 PUSH1 0x1 PUSH1 0xA0 SHL SUB DUP2 AND DUP2 EQ PUSH2 0xCE4 JUMPI PUSH1 0x0 DUP1 REVERT JUMPDEST SWAP2 SWAP1 POP JUMP JUMPDEST PUSH1 0x0 DUP1 PUSH1 0x40 DUP4 DUP6 SUB SLT ISZERO PUSH2 0xCFC JUMPI PUSH1 0x0 DUP1 REVERT JUMPDEST DUP3 CALLDATALOAD SWAP2 POP PUSH2 0xD0C PUSH1 0x20 DUP5 ADD PUSH2 0xCCD JUMP JUMPDEST SWAP1 POP SWAP3 POP SWAP3 SWAP1 POP JUMP JUMPDEST PUSH1 0x0 PUSH1 0x20 DUP3 DUP5 SUB SLT ISZERO PUSH2 0xD27 JUMPI PUSH1 0x0 DUP1 REVERT JUMPDEST PUSH2 0xD30 DUP3 PUSH2 0xCCD JUMP JUMPDEST SWAP4 SWAP3 POP POP POP JUMP JUMPDEST PUSH1 0x0 DUP1 PUSH1 0x40 DUP4 DUP6 SUB SLT ISZERO PUSH2 0xD4A JUMPI PUSH1 0x0 DUP1 REVERT JUMPDEST PUSH2 0xD53 DUP4 PUSH2 0xCCD JUMP JUMPDEST SWAP2 POP PUSH2 0xD0C PUSH1 0x20 DUP5 ADD PUSH2 0xCCD JUMP JUMPDEST PUSH1 0x0 PUSH1 0x20 DUP3 DUP5 SUB SLT ISZERO PUSH2 0xD73 JUMPI PUSH1 0x0 DUP1 REVERT JUMPDEST POP CALLDATALOAD SWAP2 SWAP1 POP JUMP JUMPDEST PUSH1 0x0 PUSH1 0x20 DUP3 DUP5 SUB SLT ISZERO PUSH2 0xD8C JUMPI PUSH1 0x0 DUP1 REVERT JUMPDEST DUP2 MLOAD DUP1 ISZERO ISZERO DUP2 EQ PUSH2 0xD30 JUMPI PUSH1 0x0 DUP1 REVERT JUMPDEST PUSH4 0x4E487B71 PUSH1 0xE0 SHL PUSH1 0x0 MSTORE PUSH1 0x11 PUSH1 0x4 MSTORE PUSH1 0x24 PUSH1 0x0 REVERT JUMPDEST PUSH1 0x0 DUP3 NOT DUP3 GT ISZERO PUSH2 0xDC5 JUMPI PUSH2 0xDC5 PUSH2 0xD9C JUMP JUMPDEST POP ADD SWAP1 JUMP JUMPDEST PUSH1 0x20 DUP1 DUP3 MSTORE DUP2 DUP2 ADD MSTORE PUSH32 0x4F776E61626C653A2063616C6C6572206973206E6F7420746865206F776E6572 PUSH1 0x40 DUP3 ADD MSTORE PUSH1 0x60 ADD SWAP1 JUMP JUMPDEST PUSH1 0x1 DUP2 DUP2 JUMPDEST DUP1 DUP6 GT ISZERO PUSH2 0xE3A JUMPI DUP2 PUSH1 0x0 NOT DIV DUP3 GT ISZERO PUSH2 0xE20 JUMPI PUSH2 0xE20 PUSH2 0xD9C JUMP JUMPDEST DUP1 DUP6 AND ISZERO PUSH2 0xE2D JUMPI SWAP2 DUP2 MUL SWAP2 JUMPDEST SWAP4 DUP5 SHR SWAP4 SWAP1 DUP1 MUL SWAP1 PUSH2 0xE04 JUMP JUMPDEST POP SWAP3 POP SWAP3 SWAP1 POP JUMP JUMPDEST PUSH1 0x0 DUP3 PUSH2 0xE51 JUMPI POP PUSH1 0x1 PUSH2 0x5D8 JUMP JUMPDEST DUP2 PUSH2 0xE5E JUMPI POP PUSH1 0x0 PUSH2 0x5D8 JUMP JUMPDEST DUP2 PUSH1 0x1 DUP2 EQ PUSH2 0xE74 JUMPI PUSH1 0x2 DUP2 EQ PUSH2 0xE7E JUMPI PUSH2 0xE9A JUMP JUMPDEST PUSH1 0x1 SWAP2 POP POP PUSH2 0x5D8 JUMP JUMPDEST PUSH1 0xFF DUP5 GT ISZERO PUSH2 0xE8F JUMPI PUSH2 0xE8F PUSH2 0xD9C JUMP JUMPDEST POP POP PUSH1 0x1 DUP3 SHL PUSH2 0x5D8 JUMP JUMPDEST POP PUSH1 0x20 DUP4 LT PUSH2 0x133 DUP4 LT AND PUSH1 0x4E DUP5 LT PUSH1 0xB DUP5 LT AND OR ISZERO PUSH2 0xEBD JUMPI POP DUP2 DUP2 EXP PUSH2 0x5D8 JUMP JUMPDEST PUSH2 0xEC7 DUP4 DUP4 PUSH2 0xDFF JUMP JUMPDEST DUP1 PUSH1 0x0 NOT DIV DUP3 GT ISZERO PUSH2 0xEDB JUMPI PUSH2 0xEDB PUSH2 0xD9C JUMP JUMPDEST MUL SWAP4 SWAP3 POP POP POP JUMP JUMPDEST PUSH1 0x0 PUSH2 0xD30 DUP4 DUP4 PUSH2 0xE42 JUMP JUMPDEST PUSH1 0x0 DUP2 PUSH1 0x0 NOT DIV DUP4 GT DUP3 ISZERO ISZERO AND ISZERO PUSH2 0xF09 JUMPI PUSH2 0xF09 PUSH2 0xD9C JUMP JUMPDEST POP MUL SWAP1 JUMP JUMPDEST PUSH1 0x0 DUP3 PUSH2 0xF2B JUMPI PUSH4 0x4E487B71 PUSH1 0xE0 SHL PUSH1 0x0 MSTORE PUSH1 0x12 PUSH1 0x4 MSTORE PUSH1 0x24 PUSH1 0x0 REVERT JUMPDEST POP DIV SWAP1 JUMP JUMPDEST PUSH1 0x0 DUP3 DUP3 LT ISZERO PUSH2 0xF42 JUMPI PUSH2 0xF42 PUSH2 0xD9C JUMP JUMPDEST POP SUB SWAP1 JUMP JUMPDEST PUSH4 0x4E487B71 PUSH1 0xE0 SHL PUSH1 0x0 MSTORE PUSH1 0x32 PUSH1 0x4 MSTORE PUSH1 0x24 PUSH1 0x0 REVERT JUMPDEST PUSH1 0x0 PUSH1 0x0 NOT DUP3 EQ ISZERO PUSH2 0xF71 JUMPI PUSH2 0xF71 PUSH2 0xD9C JUMP JUMPDEST POP PUSH1 0x1 ADD SWAP1 JUMP JUMPDEST DUP1 MLOAD PUSH10 0xFFFFFFFFFFFFFFFFFFFF DUP2 AND DUP2 EQ PUSH2 0xCE4 JUMPI PUSH1 0x0 DUP1 REVERT JUMPDEST PUSH1 0x0 DUP1 PUSH1 0x0 DUP1 PUSH1 0x0 PUSH1 0xA0 DUP7 DUP9 SUB SLT ISZERO PUSH2 0xFAA JUMPI PUSH1 0x0 DUP1 REVERT JUMPDEST PUSH2 0xFB3 DUP7 PUSH2 0xF78 JUMP JUMPDEST SWAP5 POP PUSH1 0x20 DUP7 ADD MLOAD SWAP4 POP PUSH1 0x40 DUP7 ADD MLOAD SWAP3 POP PUSH1 0x60 DUP7 ADD MLOAD SWAP2 POP PUSH2 0xFD6 PUSH1 0x80 DUP8 ADD PUSH2 0xF78 JUMP JUMPDEST SWAP1 POP SWAP3 SWAP6 POP SWAP3 SWAP6 SWAP1 SWAP4 POP JUMP JUMPDEST PUSH1 0x0 PUSH1 0x20 DUP3 DUP5 SUB SLT ISZERO PUSH2 0xFF4 JUMPI PUSH1 0x0 DUP1 REVERT JUMPDEST DUP2 MLOAD PUSH1 0xFF DUP2 AND DUP2 EQ PUSH2 0xD30 JUMPI PUSH1 0x0 DUP1 REVERT INVALID LOG2 PUSH5 0x6970667358 0x22 SLT KECCAK256 MUL PUSH4 0x7324E8DD 0xE1 0xC9 PUSH24 0x1497C37BB7C79FC65B1B208662BD5032FA22205EA17FAD64 PUSH20 0x6F6C634300080A00330000000000000000000000 ","sha1":"6ab79551b30d8e16efc3cca5d99fafb3ef75593a","source":"pragma solidity ^0.8.0;\n\nimport \"@openzeppelin/contracts/access/Ownable.sol\";\nimport \"@openzeppelin/contracts/token/ERC20/IERC20.sol\";\nimport \"@chainlink/contracts/src/v0.8/interfaces/AggregatorV3Interface.sol\";\n\ncontract TokenFarm is Ownable {\n\n    // mapping token address -> staker address -> amount \n    mapping(address => mapping(address => uint256)) public stakingBalance;\n    mapping(address => uint256) public uniqueTokensStaked;\n    mapping(address => address) public tokenPriceFeedMapping;\n    address[] public allowedTokens;\n    address[] public stakers;\n    IERC20 public golluxToken;\n\n\n    constructor(address _golluxTokenAddress) public {\n        golluxToken = IERC20(_golluxTokenAddress);\n    }\n\n    function setPriceFeedContract(address _token, address _priceFeed) public onlyOwner {\n        tokenPriceFeedMapping[_token] = _priceFeed;\n    }\n\n    function issueTokens() public onlyOwner {\n        // Issue tokens to all stakers\n        for ( \n            uint256 stakersIndex = 0;\n            stakersIndex < stakers.length;\n            stakersIndex++\n        ){\n            address recipient = stakers[stakersIndex];\n            uint256 userTotalValue = getUserTotalValue(recipient);\n            golluxToken.transfer(recipient, userTotalValue);\n        }\n    }\n\n    function issueSingleToken(address _user) public {\n        // Issue single token to specific address\n        golluxToken.transfer(_user, 1000000000000000000);\n    }\n\n    function getUserTotalValue(address _user) public view returns (uint256){\n        uint256 totalValue = 0;\n        require(uniqueTokensStaked[_user] > 0, \"No tokens staked!\");\n        for (\n            uint256 allowedTokensIndex = 0;\n            allowedTokensIndex < allowedTokens.length;\n            allowedTokensIndex++\n        ){\n            totalValue = totalValue + getUserSingleTokenValue(_user, allowedTokens[allowedTokensIndex]);\n        }\n        return totalValue;\n    }\n\n    function getUserSingleTokenValue(address _user, address _token) public view returns (uint256) {\n        if (uniqueTokensStaked[_user] <= 0){\n            return 0;\n        }\n        // price of the token * stakingBalance[_token][user]\n        (uint256 price, uint256 decimals) = getTokenValue(_token);\n        return \n            // 10000000000000000000 ETH\n            // ETH/USD -> 10000000000\n            // 10 * 100 = 1,000\n            (stakingBalance[_token][_user] * price / (10**decimals));\n    }\n\n    function getTokenValue(address _token) public view returns (uint256, uint256) {\n        address priceFeedAddress = tokenPriceFeedMapping[_token];\n        AggregatorV3Interface priceFeed = AggregatorV3Interface(priceFeedAddress);\n        (,int256 price,,,)= priceFeed.latestRoundData();\n        uint256 decimals = uint256(priceFeed.decimals());\n        return (uint256(price), decimals);\n    }\n\n\n    function stakeTokens(uint256 _amount, address _token) public {\n        require(_amount > 0, \"Amount must be more than 0\");\n        require(tokenIsAllowed(_token), \"Token is currently not allowed\");\n        IERC20(_token).transferFrom(msg.sender, address(this), _amount);\n        updateUniqueTokensStaked(msg.sender, _token);\n        stakingBalance[_token][msg.sender] = stakingBalance[_token][msg.sender] + _amount;\n        if (uniqueTokensStaked[msg.sender] == 1){\n            stakers.push(msg.sender);\n        }\n    }\n\n    function unstakeTokens(address _token) public {\n        uint256 balance = stakingBalance[_token][msg.sender];\n        require(balance > 0, \"Staking balance cannot be 0\");\n        IERC20(_token).transfer(msg.sender, balance);\n        stakingBalance[_token][msg.sender] = 0 ;\n        uniqueTokensStaked[msg.sender] = uniqueTokensStaked[msg.sender] - 1;\n    }\n\n    function updateUniqueTokensStaked(address _user, address _token) internal {\n        if (stakingBalance[_token][_user] <= 0){\n            uniqueTokensStaked[_user] = uniqueTokensStaked[_user] + 1;\n        }\n    }\n\n    function addAllowedTokens(address _token) public onlyOwner {\n        allowedTokens.push(_token);\n    }\n\n    function tokenIsAllowed(address _token) public returns (bool) {\n        for( uint256 allowedTokensIndex=0; allowedTokensIndex < allowedTokens.length; allowedTokensIndex++){\n            if(allowedTokens[allowedTokensIndex] == _token){\n                return true;\n            }\n        }\n        return false; \n    }\n\n}","sourcePath":"contracts/TokenFarm.sol","type":"contract","deployment":{"address":"0xb8C29465b2A6c6d253c916175c5DBA61975830fB","chainid":"42","blockHeight":28587819}}